:020000040000fa
:080000000002040000000000f2
:020000040000fa
:04000800f2030000ff
:020000040000fa
:04000c0034040000b8
:020000040000fa
:040010009404000054
:020000040000fa
:0400140012040000d2
:020000040000fa
:04001800540400008c
:020000040000fa
:04001c007404000068
:020000040000fa
:04002000b404000024
:020000040000fa
:04002400e0040000f4
:020000040000fa
:04002800e0040000f0
:020000040000fa
:04002c00e0040000ec
:020000040000fa
:04003000e0040000e8
:020000040000fa
:04003400e0040000e4
:020000040000fa
:04003800e0040000e0
:020000040000fa
:04003c00e0040000dc
:020000040000fa
:04004000e0040000d8
:020000040000fa
:04004400e0040000d4
:020000040000fa
:04004800e0040000d0
:020000040000fa
:04004c00e0040000cc
:020000040000fa
:04005000e0040000c8
:020000040000fa
:040054007003000035
:020000040000fa
:040058000e03000093
:020000040000fa
:04005c00e0040000bc
:020000040000fa
:04006000e0040000b8
:020000040000fa
:04006400e0040000b4
:020000040000fa
:04006800e0040000b0
:020000040000fa
:04006c00e0040000ac
:020000040000fa
:04007000e0040000a8
:020000040000fa
:04007400e0040000a4
:020000040000fa
:04007800e0040000a0
:020000040000fa
:04007c00e00400009c
:020000040000fa
:04008000e004000098
:020000040000fa
:04008400e004000094
:020000040000fa
:04008800e004000090
:020000040000fa
:04008c00e00400008c
:020000040000fa
:04009000e004000088
:020000040000fa
:04009400e004000084
:020000040000fa
:04009800e004000080
:020000040000fa
:04009c00e00400007c
:020000040000fa
:0400a000e004000078
:020000040000fa
:0400a400e004000074
:020000040000fa
:0400a800e004000070
:020000040000fa
:0400ac00e00400006c
:020000040000fa
:0400b000e004000068
:020000040000fa
:0400b400e004000064
:020000040000fa
:0400b800e004000060
:020000040000fa
:0400bc00e00400005c
:020000040000fa
:0400c000e004000058
:020000040000fa
:0400c400e004000054
:020000040000fa
:0400c800e004000050
:020000040000fa
:0400cc00e00400004c
:020000040000fa
:0400d000e004000048
:020000040000fa
:0400d400e004000044
:020000040000fa
:0400d800e004000040
:020000040000fa
:0400dc00e00400003c
:020000040000fa
:0400e000e004000038
:020000040000fa
:0400e400e004000034
:020000040000fa
:0400e800e004000030
:020000040000fa
:0400ec00e00400002c
:020000040000fa
:0400f000e004000028
:020000040000fa
:0400f400e004000024
:020000040000fa
:0400f800e004000020
:020000040000fa
:0400fc00e00400001c
:020000040000fa
:04010000e004000017
:020000040000fa
:04010400e004000013
:020000040000fa
:04010800e00400000f
:020000040000fa
:04010c00e00400000b
:020000040000fa
:04011000e004000007
:020000040000fa
:04011400e004000003
:020000040000fa
:04011800e0040000ff
:020000040000fa
:04011c00e0040000fb
:020000040000fa
:04012000e0040000f7
:020000040000fa
:04012400e0040000f3
:020000040000fa
:04012800e0040000ef
:020000040000fa
:04012c00dc030000f0
:020000040000fa
:04013000e0040000e7
:020000040000fa
:04013400e0040000e3
:020000040000fa
:04013800e0040000df
:020000040000fa
:04013c00e0040000db
:020000040000fa
:04014000e0040000d7
:020000040000fa
:04014400e0040000d3
:020000040000fa
:04014800e0040000cf
:020000040000fa
:04014c00e0040000cb
:020000040000fa
:04015000e0040000c7
:020000040000fa
:04015400e0040000c3
:020000040000fa
:04015800e0040000bf
:020000040000fa
:04015c00e0040000bb
:020000040000fa
:04016000e0040000b7
:020000040000fa
:04016400e0040000b3
:020000040000fa
:04016800e0040000af
:020000040000fa
:04016c00e0040000ab
:020000040000fa
:04017000e0040000a7
:020000040000fa
:04017400e0040000a3
:020000040000fa
:04017800e00400009f
:020000040000fa
:04017c00e00400009b
:020000040000fa
:04018000e004000097
:020000040000fa
:04018400e004000093
:020000040000fa
:04018800e00400008f
:020000040000fa
:04018c00e00400008b
:020000040000fa
:04019000e004000087
:020000040000fa
:04019400e004000083
:020000040000fa
:04019800e00400007f
:020000040000fa
:04019c00e00400007b
:020000040000fa
:0401a000e004000077
:020000040000fa
:0401a400e004000073
:020000040000fa
:0401a800e00400006f
:020000040000fa
:0401ac00e00400006b
:020000040000fa
:0401b000e004000067
:020000040000fa
:0401b400e004000063
:020000040000fa
:0401b800e00400005f
:020000040000fa
:0401bc00e00400005b
:020000040000fa
:0401c000e004000057
:020000040000fa
:0401c400e004000053
:020000040000fa
:0401c800e00400004f
:020000040000fa
:0401cc00e00400004b
:020000040000fa
:0401d000e004000047
:020000040000fa
:0401d400e004000043
:020000040000fa
:0401d800e00400003f
:020000040000fa
:0401dc00e00400003b
:020000040000fa
:0401e000e004000037
:020000040000fa
:0401e400e004000033
:020000040000fa
:0401e800e00400002f
:020000040000fa
:0401ec00e00400002b
:020000040000fa
:0401f000e004000027
:020000040000fa
:0401f400e004000023
:020000040000fa
:0401f800e00400001f
:020000040000fa
:0401fc00e00400001b
:020000040000fa
:04020000e004000016
:020000040000fa
:04020400e004000012
:020000040000fa
:04020800e00400000e
:020000040000fa
:04020c00e00400000a
:020000040000fa
:04021000e004000006
:020000040000fa
:04021400e004000002
:020000040000fa
:04021800e0040000fe
:020000040000fa
:04021c00e0040000fa
:020000040000fa
:04022000e0040000f6
:020000040000fa
:04022400e0040000f2
:020000040000fa
:04022800e0040000ee
:020000040000fa
:04022c00e0040000ea
:020000040000fa
:04023000e0040000e6
:020000040000fa
:04023400e0040000e2
:020000040000fa
:04023800e0040000de
:020000040000fa
:04023c00e0040000da
:020000040000fa
:04024000e0040000d6
:020000040000fa
:04024400e0040000d2
:020000040000fa
:04024800e0040000ce
:020000040000fa
:04024c00e0040000ca
:020000040000fa
:04025000e0040000c6
:020000040000fa
:04025400e0040000c2
:020000040000fa
:04025800e0040000be
:020000040000fa
:04025c00e0040000ba
:020000040000fa
:04026000e0040000b6
:020000040000fa
:04026400e0040000b2
:020000040000fa
:04026800e0040000ae
:020000040000fa
:04026c00e0040000aa
:020000040000fa
:04027000e0040000a6
:020000040000fa
:04027400e0040000a2
:020000040000fa
:04027800e00400009e
:020000040000fa
:04027c00e00400009a
:020000040000fa
:04028000e004000096
:020000040000fa
:100400002f0a21000eff27000e01880000000000c7
:10041000000020000000e000020032000001200087
:100420002002880014000700a80107000000e00077
:1004300003003a00e02a21000100200002003700fa
:100440000000200001002000810f70000100320038
:100450000f000700000020000000e0000200320052
:1004600000000200000000002e1402000000000046
:100470000040da000000fe00c00020000000e000a4
:1004800002003200002020009001880000000600d9
:10049000a1028800800478000000eb001f003700f4
:1004a000e284440054a0b4009905ba00e2844400f8
:1004b00054a0b4009906ba00e284440054a0b400e9
:1004c0000006eb00476fde00fd07b200ae018800ba
:1004d000636ce10003003a000ad801000000eb0061
:1004e0000e003700606ce10008003a00004deb00a0
:1004f0000a05e800020039003420ec000af0a000f0
:100500008b05e900f9ff3e00040037006168e10057
:10051000010032000086eb000b00070019c7ba008b
:100520000e04e0001905ba0003003a000a00e000da
:10053000dbff3a0000000600fe07b200ae028800b2
:100540008a047800f5ff37000cd0a300e20f4d00bd
:100550001c003b0089027800354dba000a05e8000e
:10056000020039003420ec000af0a0008b05e900fd
:100570000f003200254dba000a05e80002003900dc
:100580003420ec000af0a0008b05e90008003200de
:100590000c00e0000600320015cdba000a05e800a4
:1005a000020039003420ec000af0a0008b05e900bd
:1005b0008984e80054a0b4000b00e000e2ff3a0098
:1005c000000006009902ba00055d78008b05e9007d
:1005d000f7ff3200c82ade00055d78008b05e900d0
:1005e000f3ff32000c00e000f1ff320019ddba0029
:1005f000eeff3700740e040000000000920e0400ad
:1006000000000000500a0400000000002006040062
:10061000000000007a050400000000003600f80029
:10062000809fbe00829fbe00849fbe00869fbe004a
:100630000000fa00508080000000e000020032005c
:100640005080800000000100318080002080800008
:10065000808f500002003a002188a900190037005d
:100660000188a90010003700308080009040780099
:100670008180fb00211188000000e80030808800a4
:100680003180800070092100808f500002003a0004
:10069000e0082100308088003180800020808000c8
:1006a000808f5000060032001111800000202000d1
:1006b000008060000000e000ebff32000100370026
:1006c000000000000080fa004f03be004f02be0091
:1006d0004f01be004f00be003600f900004006008a
:1006e0003600f800809fbe00829fbe00849fbe003f
:1006f000869fbe000000fa00608080000000e000dd
:100700000200320060808000000001000168a90042
:100710001e0037000180800030118000004078000a
:100720008048780001808000f0092100808f50000f
:1007300009003200008080000000e8001180800085
:10074000810f500004003200008080000000e800ab
:10075000008088000d00370001808000f009210032
:10076000808f500007003a0011808000700921003e
:10077000808f500003003200700921000080880043
:100780000200370010c0b30008f0b700101180005d
:10079000610060000000e000deff3a000080fa0027
:1007a0004f03be004f02be004f01be004f00be000f
:1007b0003600f90000400600801f78000000fa00b3
:1007c00010118000620060000000e00001003200b3
:1007d0002222a9000828a9000080fa004f00780012
:1007e000004006003600f800809fbe00829fbe00d9
:1007f000849fbe00869fbe000000fa00c028a900aa
:100800000000eb00090807000080fa004f03be005b
:100810004f02be004f01be004f00be003600f9007f
:10082000004006003600f800809fbe00829fbe0098
:10083000849fbe00869fbe000000fa0000080700eb
:10084000c048a90010002000f80707000080fa0047
:100850004f03be004f02be004f01be004f00be005e
:100860003600f900004006003600f800809fbe0008
:10087000829fbe00849fbe00869fbe000000fa00db
:10088000c068a90020002000e80707000080fa00e7
:100890004f03be004f02be004f01be004f00be001e
:1008a0003600f900004006003600f800809fbe00c8
:1008b000829fbe00849fbe00869fbe000000fa009b
:1008c000c088a90030002000d80707000080fa0087
:1008d0004f03be004f02be004f01be004f00be00de
:1008e0003600f900004006003600f800809fbe0088
:1008f000829fbe00849fbe00869fbe000000fa005b
:10090000c0a8a90040002000c80707000080fa0026
:100910004f03be004f02be004f01be004f00be009d
:100920003600f900004006003600f800809fbe0047
:10093000829fbe00849fbe00869fbe000000fa001a
:10094000c608a90070002000b80707000080fa0060
:100950004f03be004f02be004f01be004f00be005d
:100960003600f900004006003600f800809fbe0007
:10097000829fbe00849fbe00869fbe000000fa00da
:100980002146800000022000008060000000e0009e
:1009900003003200c4a8a90090002000a3070700ac
:1009a00020468000700060000000e000030032007c
:1009b000c488a900a00020009c070700ffff3700a3
:1009c0000040da000000fe00ec8747008e1f780030
:1009d0006c87570044002000041f7800000f780047
:1009e0006c87570002afbe00e1bf9f006c805700cc
:1009f0008d0407001e0078009e0090004f077800cd
:100a0000cf00b10000000600ec8747008e1f780081
:100a100011002000a1bf9f006c875700002f7800b5
:100a20006c805700820407001e0078004f07780092
:100a3000cf00b100000006000a00fa00e401470000
:100a400080097800660047000108780068004700c8
:100a5000020878000e80e800e600470011087800e0
:100a60000000eb00000f78000f00370000000000ce
:100a7000e50407000004a2000004e000fcff3a00c7
:100a80000e80e80010007800104078008e80e800aa
:100a9000910078000101e8008e80e800820878006b
:100aa000b90407001e0fe800680047001000780036
:100ab0009e007800808f5000ecff390068004700ee
:100ac000100078000080fa00000006000000050019
:100ad0000000fa00cfb8970068815700808080003e
:100ae00010007800340007000080fa0000000600c3
:100af000070037000000060060012100000006002a
:100b0000fdff0700a080880090808800000006009c
:100b1000ea874700889fbe008a9fbe008e1f78002c
:100b200000047800030078007287570084e22600f2
:100b300055c72600049fbe00c3962200030f78000d
:100b40006c875700004feb0011059000a104900046
:100b5000910578000200e0000200320002077800f0
:100b600001003700728757000000e00002003a00e1
:100b70000e007800e60207000a00e00003003500de
:100b80008a0f5000010036000a0078000b0278003e
:100b900089017800000178008e0078000800780054
:100ba000450007004f0778004f05be004f04be0008
:100bb000af00b100000006000200fa00881f7800b4
:100bc00000047800e2bf9f006481570008007800ad
:100bd000ef010700980090000148a30001003200d7
:100be0000080eb004f0478000080fa00000006004f
:100bf000889fbe008a1f780080047800490090001a
:100c000002047800800f54000100360000047800d0
:100c1000080178006a8544001a0078005202070033
:100c20001a004400000d7800e8844400990c140078
:100c30000048eb004f0578004f04be00000006009e
:100c4000100078007cff3700900190000388a3001b
:100c500001003200e6ff37000348a30001003a001c
:100c6000f7ff070000000600889fbe008a1f78007b
:100c7000800478004900900002047800800f54003e
:100c80000100360000047800080178006a854400fd
:100c90001a007800340207001a004400000d7800a2
:100ca000e8844400990c14000048eb004f057800dc
:100cb0004f04be0000000600f2874700889fbe0078
:100cc0008a9fbe008c9fbe008e1f78008004780033
:100cd000010578000204780083057800610762004e
:100ce00002003a008b0f5400080039000801780018
:100cf0008a00780009007800d3ff07008b0f5400aa
:100d000002003900880578001e003700088655006b
:100d10000c017800f00f560001003600020120009f
:100d2000010220007e805700160207008c06780022
:100d30000500370002012000fe80570009007800fe
:100d4000c1ff0700f0865600ef8f5600f9ff3e0006
:100d50004461de0000ff2f008091b9000c014100ca
:100d6000fe80570009007800b7ff07000e00e00082
:100d700004003a00080178008a0078000900780031
:100d8000b1ff07000b0078004f0778004f06be0048
:100d90004f05be004f04be002f01b1000000060049
:100da00000000500000005000000050000017800bb
:100db0000040eb008080fb00818040008307210021
:100dc00081814100134278000404e00004003a00ed
:100dd00090072100810040001140780000000600cb
:100de00092017800934f520005003a0090072100cd
:100df00081004000114078000309e800010037003d
:100e00000040e800ea4f5000eaff3600000006000c
:100e1000f6874700889fbe008a9fbe008c9fbe0059
:100e20008e1f780080047800010478008305780024
:100e3000040678000000eb00c0b79f008080eb0044
:100e4000d1b79f00e0b79f00f2b79f0000082000d5
:100e500080bf9f0098007800010078000005eb003b
:100e6000010037000a05e800304178000204e00084
:100e70000300320053c2b300834f5100f9ff3a0020
:100e80000a00e000040032000a017800090078003e
:100e90006dff0700180c45001807780050c2b3001a
:100ea0009e4f100033013a000e07e8000e0c780048
:100eb00010003700cfb097000100a0000b003700f2
:100ec000cfb097000110a00008003700cfb0970006
:100ed0000120a00005003700cfb097000130a0002e
:100ee00002003700cfb097000140a000c1b79f00bb
:100ef000000ce8001800780090407800b2c2b300ff
:100f000082cf5000f1ff320007003c0002c2b30064
:100f100082cf5000f0ff320032c2b30082cf5000c7
:100f200007003a00efff3700d2c2b30082cf500073
:100f3000e0ff320002c3b30082cf5000e0ff320076
:100f4000a2c2b30082cf50000d003a00000ce800ae
:100f50001c80e900000e780010007800e0b79f00c8
:100f60000000e0000f003d00cfb097000100a2009c
:100f7000c1b79f000000ea00e0b79f0009003700fa
:100f800005020700e0b79f0001003700000ce800f1
:100f9000180078009000fb000103b100e98f5000b9
:100fa000faff36004fb097000008a300020032009d
:100fb0000010a100c0b79f0018007800e1c2b30084
:100fc00090cf100016003a008000eb00d1b79f00d0
:100fd0000000e800000c7800a1c2b30090cf100020
:100fe00006003a00000ce8001c80e900000e7800c2
:100ff00010007800d0b79f0009003700e601070015
:10100000d0b79f0001003700000ce80018007800fe
:101010009000fb000103b100e98f5000faff360099
:101020000800780061ff070080467800180078000b
:101030001000fb00fe01070091062000810f500008
:101040003800320012003c0041062000810f5000a1
:10105000340032000a003c0011062000810f5000cd
:101060002000320031062000810f50009a0032002b
:1010700051022000810f5000ae003a00a700370057
:1010800071062000810f5000aa003c00820037004a
:1010900001072000810f50005c00320007003c0077
:1010a000e1062000810f500074003200f10620009c
:1010b000810f50009f003a0039003700510720008f
:1010c000810f50002700320081072000810f50005f
:1010d0004200320031072000810f500095003a0095
:1010e000850037008d80fb000c01780000fe2f008a
:1010f0000f004000d50107000000e0009c00320016
:1011000018007800000ce8009041780002fe2f00e3
:101110000f014100f88057000900780021ff070007
:101120000e0037008d80fb008c017800120020003b
:1011300000fe2f000f004000e60107000000e00065
:101140008b003200180ce80002fe2f000f01410056
:10115000f88057000900780011ff070000054500de
:10116000840037008d80fb008c0178000001eb00cb
:1011700000fe2f000f004000d60107000000e00035
:101180007b003200180ce80002fe2f000f01410026
:10119000f88057000900780001ff0700efff3700d3
:1011a0008d80fb008c0178000001eb0000fe2f0019
:1011b0000f004000c70107000000e0006c00320093
:1011c000180ce80002fe2f000f014100f8805700c4
:1011d00009007800f2fe0700e0ff37008d80fb0079
:1011e0008c0178000001eb0000fe2f000f00400092
:1011f000b80107000000e0005d0032001800780030
:10120000000ce80090417800160037008c0178004f
:101210000001eb00010f200000fe2f000f00400036
:10122000ac0107000000e00051003200180ce8009b
:101230000fb097009fb097002fb19700bfb19700f4
:10124000e00f5000e08f5800e00f5900e08f590088
:1012500003003a008001eb00220721004000370024
:1012600083c7b30002fe2f000f014100f880570032
:1012700009007800cbfe0700b8ff37000b014500de
:101280008d80fb008c01780000fe2f000f004000d5
:10129000ed010700360037008d80fb000c0178005f
:1012a00000fe2f000f004000680107000000e00072
:1012b0002f00320018007800000ce8009041780000
:1012c00002fe2f000f014100f8805700090078004e
:1012d000b4fe0700a1ff370000c8b30080cf56005e
:1012e00023003a00180ce8001c80e900000e78008a
:1012f000104078000d00370000c8b30080cf5600c2
:101300001b003a00180ce8001c80e900000e780071
:101310008001eb00100178001100370001c8b30014
:1013200081cf560012003a00180ce800e0df9f0061
:101330000800370050c2b300e0df9f000e0c7800b9
:101340000000eb00c0b79f00e0b79f008080eb007b
:10135000d1b79f0013002000e2fd2f000f014100d4
:10136000f880570009007800e9fd07007bff37008f
:10137000180ce8000a0078004f0778004f06be00fe
:101380004f05be004f04be006f01b1000000060013
:101390008200fa00889fbe008a1f7800000578004e
:1013a00082047800c13f9f000004eb00100037006a
:1013b0000902780088017800a2f72f000f01410090
:1013c00081f72f008f8040000a00780090fe070010
:1013d00008004000880f500004003d00b0042000c9
:1013e000008588000084eb000400370000047800ca
:1013f0004f3897001004e000edff3a000800780035
:101400004f0578004f04be000080fa00000006007f
:10141000889fbe008a1f78000004780001057800cc
:101420000000eb000800e0001a00320018009000f5
:101430000058a3000c003200ea0444006800900049
:10144000990f100008003600b80990000001eb0069
:101450008200780008007800030001000080eb00a3
:101460001900e0000b003200740044000008eb009b
:101470006c0044000008eb006a0044000008eb0028
:101480000000eb000a00e0000200320018007800c3
:101490005dfd07004f0578004f04be000000060008
:1014a000889fbe008a1f78000004be000000eb0089
:1014b0000800e00029003200180090000058a30046
:1014c000120032006a054400680090009a0f100074
:1014d00008003600b80990000001eb008200780097
:1014e00008007800030001000080eb001a00e00013
:1014f0001a003200740044000008eb006c00440045
:101500000008eb006a0044000008eb00780a900035
:1015100008109000800f52000600310000025200b7
:1015200011002000cfa2de00612bb9001800780066
:1015300025fd070000022000080040000008eb0025
:101540007e0044000008eb000000eb000900e00012
:1015500002003200180078002bfd07004f057800cc
:101560004f04be0000000600800178000200370032
:10157000b15978000201e9000200e000fcff3a00e6
:1015800000000600889fbe008a9fbe00800478008d
:101590000200e0005a00320001407800814c7800df
:1015a00082814400f1f99f00e20f5100540036009f
:1015b00091449800a1449800e1f99f00d1f99f005f
:1015c000e60f51004e003600b1449800c1f99f006b
:1015d000e80f51004a0036000905ea00630565007e
:1015e0000a8444000a055100c1ff2f00010565006f
:1015f0000080fb008000eb00121020001310200080
:1016000083010700008cbe000a01440060b99f00fe
:1016100071b99f00e80f550039003600200498008a
:1016200031049800400498005104980020b99f00ac
:1016300031b99f0040b99f0051b99f00f80f550084
:101640002f0036006004980071049800000c980088
:10165000110c9800200c9800310c9800400c980058
:10166000510c980020b19f0031b19f0040b19f0004
:1016700051b19f0060b19f0071b19f0000b99f0000
:1016800011b99f0064016400780141000204440024
:10169000020555006011b8000203be000002be0042
:1016a0000403be006022b800000072008180720056
:1016b00002017300838173000f0037000802780075
:1016c000009abe00029abe00009abe000292be00be
:1016d000000c9800110c9800220c9800330c980014
:1016e000400c9800510c9800620c9800730c980004
:1016f0000a02b1000802b000ff0f5500efff3e00e4
:10170000090078004f05be004f04be00000006002f
:1017100080007800040037003104e00002003a0045
:101720000000510000000600010178000108a3003c
:10173000f9ff3a008101780031017800f4ef2f00c1
:10174000020242000281ea0002016200040828004d
:1017500004016100f7ff3200830078000101780086
:101760003104e000fdff3a000000510000000600d7
:10177000800078001000200002022000828f5000bc
:1017800004003200e9805000e48f50000100360070
:101790000000eb0000000600889fbe008a1f780052
:1017a00080047800090478008804780039457800be
:1017b0000a00fb00eeff07000000e000f9ff3a001e
:1017c000b0c2b300804f550005003200d0c2b30054
:1017d0008000eb00804f550005003a000200370002
:1017e0008000eb0001003700110020000804e80031
:1017f0000000eb0003003700ea00b90002005000cf
:101800000003b0003801fb0003fd2f00828141007e
:10181000e98f5100f8ff36000100e00001003a00b6
:101820000000ea004f0578004f04be0000000600eb
:10183000f1fb2f0080804000f98f500001003e0036
:101840000050a00000000600f9ff3700881f780054
:101850000004780000082000808f50001a00350036
:1018600010082000808f50000d0034003008200048
:10187000808f500014003a00920078006880500079
:101880000009780010027800900290002003900078
:10189000b0039000049cbe000694be000800370010
:1018a0009202780064805200000978009000900055
:1018b00010007800a2000700009cbe000294be0049
:1018c00010002000010037000000eb004f047800fa
:1018d0000000060084082000848f50001d003200a4
:1018e0000d003c0014082000848f500027003200b7
:1018f00002003c00040820000400370024082000f7
:10190000848f50002b00320044082000848f500048
:101910004c003a003f003700040a2000848f50003a
:101920002e00320004003c0004092000848f500087
:1019300044003a002f003700020c2000828f500034
:101940001f003200020f2000828f50003d003a003d
:10195000340037009380e9000200e0000500320007
:10196000810978001102fb00cfa2de00612bb900d3
:101970003100370081097800114278000482fb00b1
:101980008002eb006033b8002b00370013027800b0
:10199000e40052000200e0000b00320081097800f0
:1019a00011027800910290004fabde0086037800b0
:1019b0002100370093027800e88052000f003700c2
:1019c00093027800e48052008109780011027800c7
:1019d000910290006033b800170037009380e9004f
:1019e0008109780011027800cfa2de00612bb900d6
:1019f0001100370013037800e800530081097800d4
:101a0000110278009102900021039000b103900030
:101a1000090037009380e9000200e0000200320074
:101a2000efff37009380e900810978001102780008
:101a30008002eb006033b8000498be000690be0040
:101a4000100005000000050044082000848f5000ad
:101a5000270032000a003c0014082000848f500048
:101a60001c00320024082000848f50002600320021
:101a700004082000848f50002c003a001c0037001e
:101a800004092000848f50001f00320004003c0035
:101a900084082000848f500024003a00070037009b
:101aa000040a2000848f500011003200040c200032
:101ab000848f50001d003a00060037009380e90033
:101ac0008109780091007800010878008248780048
:101ad000150037009380e9008109780091007800b3
:101ae00001087800cf91de008288be000e0037002a
:101af0009380e9008109780091007800010878005e
:101b000082087800080037009380e9008109780096
:101b100091007800010878006112b900612bb900ca
:101b20008498be008690be001000050000000500ed
:101b300000000600f2fb0700fdff0700fcff370076
:101b4000810378001d0007000001be006000b8009e
:101b50000478a30013003a006220e10015003e0063
:101b60000d0039008301d1000281d3008180d300b0
:101b70008301d1000281d3008180d3008301d10091
:101b80000281d3008180d3000538b000c42add0073
:101b9000f300b2008381720007f0a70003f0a000f9
:101ba0000000060083ff2700020020006110b9003a
:101bb000f9ff370003ff2700f7ff3700c70ade00f1
:101bc000f107b200f50fb20008003200e1cf420089
:101bd000020032000170a00024000500810f700097
:101be000010032000408050044000500810f700068
:101bf00002003a00140005008502e90000004000e0
:101c000081c04800fcff3b000170a00024000500db
:101c1000020ab900001bb9000200b80081004200ae
:101c2000810043000000060000c0da00000006004a
:081c300000c0da00000006000c
:020000040000fa
:101c3800486500006c6c00006f200000576f0000c2
:081c4800726c00006400000052
:020000040000fa
:101c50000000fa002188a9002168a9008000200066
:101c6000001188002222ef0010002000401188009f
:101c7000e008210030808800e008210020808800f2
:101c80007009210010808800700921000080880000
:101c90000870ef0040e720000700070020e920005f
:101ca000140007002168a80021e2a8002342a80030
:101cb0000080fa00000006000200fa00000f780021
:101cc0001e0078000000e00003003a0040e720001a
:101cd00050808800020037009e0078005180880004
:101ce0000080fa00000006000000fa000080fa0000
:101cf000000006000200fa00000f78001e007800c5
:101d00000000e00003003a0020e920006080880025
:101d1000020037009e007800618088000080fa0091
:101d2000000006000000fa000080fa000000060033
:101d30000200fa000040eb00004f780000000000b5
:101d40001180800000808000808f5000fcff3200f6
:101d500010808000104f7800108080000000e800a4
:101d60001080880011808000000a2100808f5000c0
:101d700002003a0070092100108088001e4078009f
:101d80000080fa00000006000200fa00004f780010
:101d9000000000001c0007000004a2000004e00096
:101da000fcff3a00208080001e48780020808000e0
:101db0000000e80020808800218080007009210058
:101dc000808f500002003a00e00821002080880047
:101dd0002188a8000080fa00000006000000fa0038
:101de00011808000008080000080680000f0a70063
:101df0000000ea000000ea004f00de00004078002a
:101e00000080fa00000006000400fa000e80e800de
:101e10003180800001087800218080000e80e80079
:101e200010007800808f5000070031000e80e8001d
:101e30009000780020808000008050000000e900c1
:101e4000000f7800060037000e80e8009000780050
:101e5000208080000080500068004000000f780063
:101e60001e00780000f0a7000000ea000000ea0071
:101e70004f00de00004078000080fa0000000600fd
:101e80000000fa002180800030808000808f5000a8
:101e900009003a001111800000102000008060004d
:101ea00000f0a7000000ea000000ea004f00de009a
:101eb00000407800010037000040eb000080fa008d
:101ec000000006000400fa000e80e8000180800097
:101ed00001087800118080000e80e8001000780072
:101ee000810f5000070031000e80e800900078005c
:101ef000108080000080500069004000000f7800d2
:101f0000040037000e80e800900078001080800008
:101f1000008f5000f00f20009e007800808f50004e
:101f20000200360000c0eb00020037001e007800ff
:101f3000004078000080fa00000006000400fa006b
:101f40000e80e80031808000010878002180800048
:101f50000e80e80010007800808f500007003100ec
:101f60000e80e80090007800208080000080500003
:101f70000000e900000f7800060037000e80e8003e
:101f800090007800208080000080500068004000b1
:101f9000000f7800f00f20009e007800808f500026
:101fa0000200360000c0eb00020037001e0078007f
:101fb000004078000080fa00000006000800fa00e7
:101fc00064014700000978006600470001087800b6
:101fd000bcff07000080fb00000f78006600470090
:101fe000100078009e0f500002003100660047008c
:101ff000100f78008000eb000e80e80001087800e8
:102000000e0037004aff0700e40047009100780007
:102010008048780064004700100078008000e800e5
:1020200064004700010878000e80e8001000780086
:102030008000e8000e80e800010878000e80e800cb
:10204000100078009e0f5000eeff39001e0078004f
:102050000080fa00000006000800fa006401470052
:10206000000978006600470001087800b3ff070008
:102070000080fb00000f7800660047001000780029
:102080009e0f50000200310066004700100f7800dc
:102090008000eb000e80e800010878000e00370099
:1020a000640047001000780010407800e40047000a
:1020b000910078000101e800e40047008208780000
:1020c00031ff07000e80e800100078008000e80073
:1020d0000e80e800010878000e80e800100078000b
:1020e0009e0f5000eeff39001e0078000080fa00bd
:1020f000000006000400fa000000eb00000f78006a
:1021000070ff07008e80e800804878008bff070092
:10211000e3004700804878000e80e8001040780017
:102120000080fb000000e00003003200e90f5000d7
:1021300003003200040037001e20a0000400370016
:102140001e00a000020037001e10a00000000000ca
:1021500063004700104078000080fb000000e000b2
:1021600003003200e90f5000030032000400370082
:102170001e30a000020037001e40a000000000003a
:102180001e0078000080fa00000006000400fa003b
:102190008e80e80080087800118080000e80e800c2
:1021a00010007800008f4000020037009e00780089
:1021b000698f5000000a21009e007800808f500037
:1021c000faff3e001e007800104078000080fa0000
:1021d000000006000000fa003aff07000080fb0044
:1021e0000000e9004f00de00004078000080fa00a7
:1021f000000006000000fa0050ff07000080fb000e
:102200000000e9004f00de00004078000080fa0086
:10221000000006000000fa00101180000080fa00a3
:10222000000006000000fa0044ff07000004e00080
:10223000100032003180800020808000808f5000ac
:10224000060036003080800080007800208080000a
:10225000008050000000e900070037003080800057
:1022600080007800208080000080500068004000de
:10227000010037000000eb000080fa0000000600bb
:102280000000fa000fff07000004e0001000320019
:102290001180800000808000808f50000600360092
:1022a0001080800080007800008080000080500056
:1022b0000000e900070037001080800080007800ef
:1022c000008080000080500068004000010037005e
:1022d0000000eb000080fa00000006000000fa0099
:1022e00021e2a8002342a8000080fa0000000600b6
:1022f0000000fa0021e2a9002342a9000080fa00b0
:10230000000006000000fa00003a80000080fa0099
:10231000000006000200fa00faff0700000f780034
:102320001e007800240007000004e00002003200d4
:10233000000028007d0007001e0078002c00070028
:102340000004e000020032000000240077000700d3
:102350001e007800360007000004e0000200320092
:1023600000202000710007001e00780040000700d8
:102370000004e00002003200000820006b000700ab
:102380001e0078004a0007000004e000020032004e
:1023900000042000650007001e00780054000700bc
:1023a0000004e00002003200000120005f0007008e
:1023b0000080fa00000006000400fa008e80e800a9
:1023c000800878000040eb00004f78000e80e800a5
:1023d000100078000000e00002003d0010c0b300d3
:1023e000004f78001e4078000080fa0000000600d0
:1023f0000400fa008e80e800800878000040eb00be
:10240000004f78000e80e800900078000000240063
:10241000008060000000e0000200320010c0b30045
:10242000004f78001e4078000080fa00000006008f
:102430000400fa008e80e800800878000040eb007d
:10244000004f78000e80e800900078000020200007
:10245000008060000000e0000200320010c0b30005
:10246000004f78001e4078000080fa00000006004f
:102470000400fa008e80e800800878000040eb003d
:10248000004f78000e80e8009000780000082000df
:10249000008060000000e0000200320010c0b300c5
:1024a000004f78001e4078000080fa00000006000f
:1024b0000400fa008e80e800800878000040eb00fd
:1024c000004f78000e80e8009000780000042000a3
:1024d000008060000000e0000200320010c0b30085
:1024e000004f78001e4078000080fa0000000600cf
:1024f0000400fa008e80e800800878000040eb00bd
:10250000004f78000e80e800100078007000600036
:102510000000e0000200320010c0b300004f78005d
:102520001e4078000080fa00000006000200fa0059
:10253000000f78001e80ea00013a80000100600070
:10254000003a88000080fa00000006000000fa004f
:0c2550004027ef000080fa0000000600a9
:020000040000fa
:10255c008e1000001200000080000000001000002f
:10256c000e0000008000000052100000200000004f
:10257c00800000000e10000002000000820000002d
:10258c00ffff00001010000042000000820000005d
:10259c0014101600101610000100030000000000bb
:1025ac000000000000000000000050000a000000c5
:1025bc0000000000002006007a050000000000006a
:1025cc0000000000000000000000000000000000ff
:1025dc0000000000000000000000000000000000ef
:1025ec000000000000000000721000001c00000041
:1025fc0082000000286e69006c29000068076c00de
:10260c00094c83006a907400a07ac00000806800b6
:10261c00880084006c82000081000000a010000083
:0c262c0002000000800000000000000020
:020000040000fa
:102638000000fa00042eef00142eef00242eef0005
:10264800342eef00442eef00542eef00642eef00de
:1026580030f92100007088000080eb00807088004d
:10266800f0ff2300007188000016200080718800a8
:1026780000002f000072880030002000807288005f
:10268800003c2000007388000c2eef001c2eef0089
:102698002c2eef003c2eef004c2eef005c2eef00ae
:1026a8006c2eef000a2eef001a2eef002a2eef00f4
:1026b8003a2eef004a2eef005a2eef006a2eef0056
:1026c800062eef00162eef00262eef00362eef0016
:1026d800462eef00562eef00662eef0030812100c7
:1026e8007070880030102000f07088007080200022
:1026f8007071880000002f00707288000080fa0056
:10270800000006000000fa0000142300203a8800a8
:102718004827ef004e27ef0020032000303a8800ba
:102728006027ef006227ef006427ef006627ef00bd
:102738006a27ef006c27ef00720020008007200056
:10274800a10920003374200080497800814978006d
:10275800824978000001eb00600420007105200028
:1027680023742000804978008149780082497800e4
:102778000080fa00000006000200fa00000f78004e
:1027880021028000200f2000008060001e007000e1
:10279800200288000080fa00000006000000fa000d
:1027a800c3e8a80000000000000000000080fa0054
:1027b800000006000000fa009dff07000700070060
:1027c800d0ff070020fd0700f4ff070000022000eb
:1027d800e9ff07000080fa00000006000000fa0088
:1027e80001438000f0f82f00008060000040a00046
:1027f800004388003142800080ff2f000080600085
:102808000000a0003042880021428000f0ff28002c
:102818000080600000c0a000204288000080fa000c
:10282800000006000200fa00000f78009e00780001
:1028380071808800ffff37000000fa0020052100a2
:1028480080077800a0062100000188000080fa00b7
:10285800000006000000fa00d6ff0700c0e12800cb
:10286800801f780098f807008f87e900fbff370082
:020000040000fa
:020000040005f5
:045fe000cfff0000ef
:020000040000fa
:020000040005f5
:045fe400ffff0000bb
:020000040000fa
:020000040005f5
:045fe8007fff000037
:020000040000fa
:020000040005f5
:045fec00bfff0000f3
:020000040000fa
:020000040005f5
:045ff0007fff00002f
:020000040000fa
:020000040005f5
:045ff400ffffff00ac
:00000001FF
